:100000000C9434000C9446000C9446000C9446006A
:100010000C9446000C9446000C9446000C94460048
:100020000C9446000C9446000C9446000C94460038
:100030000C9446000C9446000C9446000C94460028
:100040000C946C000C9446000C9446000C944600F2
:100050000C9446000C9446000C9446000C94460008
:100060000C9446000C94460011241FBECFEFD8E03C
:10007000DEBFCDBF21E0A0E0B1E001C01D92A23003
:10008000B207E1F70E94E6000C94ED000C9400002A
:1000900080E480937C0087E880937A0008959091B3
:1000A0007C00987F90937C0090917C008770982BC7
:1000B00090937C0080917A00806480937A00809194
:1000C0007A0084FD04C080917A008061F6CF80912F
:1000D00078009091790008951F920F920FB60F92B9
:1000E00011248F939F9380910001909101010196BB
:1000F00090930101809300019F918F910F900FBE0B
:100100000F901F901895CF93DF9300D000D0CDB7FC
:10011000DEB79A8389837C836B8385B5846085BDD4
:1001200080916E00816080936E0016BC789410926E
:10013000010110920001209100013091010189819B
:100140009A8128173907B8F386B52B813C8190E056
:100150008217930780F316BC1092010110920001E0
:100160006FE670E088E399E30E94CB00E4CF0E9441
:10017000480080E00E944F00589A8636914028F04F
:1001800067E370E08CE99CE104C060E070E080E02F
:1001900090E00E948300589885B5846085BD809169
:1001A0006E00816080936E0016BC789410920101FD
:1001B00010920001809100019091010188339943D0
:1001C000C8F386B58F36B0F30E94B700509A58989E
:0E01D0000E94CB0080E090E00895F894FFCFED
:00000001FF
